:020000040800F2
:10000000000005209517000899150008A71500089D
:10001000AD150008B3150008B91500080000000070
:1000200000000000000000000000000071880008CF
:10003000BF15000800000000718A0008D98A000876
:10004000E5170008E5170008E5170008E5170008A0
:10005000E5170008E5170008E5170008E517000890
:10006000E5170008E5170008E5170008E517000880
:10007000E5170008E5170008E5170008E517000870
:10008000E5170008E5170008E5170008E517000860
:10009000E5170008E5170008E5170008E517000850
:1000A000E5170008E5170008E5170008E517000840
:1000B000E5170008E5170008E5170008E517000830
:1000C000E5170008E5170008E5170008E517000820
:1000D000E5170008E5170008E5170008E517000810
:1000E000E5170008E5170008E5170008E517000800
:1000F000E5170008E5170008E5170008E5170008F0
:10010000E5170008E5170008E5170008E5170008DF
:10011000E5170008E5170008CD150008E5170008E9
:10012000E5170008E5170008E5170008E5170008BF
:10013000E5170008E5170008E5170008E5170008AF
:10014000E5170008E5170008E5170008E51700089F
:10015000E5170008E5170008E5170008E51700088F
:10016000E5170008E5170008E5170008E51700087F
:10017000E5170008E5170008E51700080000000073
:10018000E5170008E5170008E5170008E51700085F
:10019000E5170008E5170008E5170008E51700084F
:1001A000E1150008E5170008F5150008E517000837
:1001B000E5170008E5170008E5170008E51700082F
:0801C000E5170008E51700082F
:1001D00010B5054C237833B9044B13B10448AFF381
:1001E00000800123237010BD1C01002000000000CE
:1001F0000CBE010808B5034B1BB103490348AFF31C
:10020000008008BD00000000200100200CBE010895
:1002100001F0FF01102A2BDB10F0070F08D010F8B7
:10022000013B013A8B422DD010F0070F42B3F6D1BB
:10023000F0B441EA012141EA014122F007047FF0D4
:1002400000070023F0E80256083C85EA010586EA2B
:10025000010685FA47F5A3FA87F586FA47F6A5FA67
:1002600087F68EB9EED1F0BC01F0FF0102F0070273
:1002700032B110F8013B013A83EA010313B1F8D11E
:100280000020704701387047002D06BF35460338FF
:10029000073815F0010F07D1013015F4807F02BF38
:1002A000013015F4C03F0130F0BC0138704700BF89
:1002B00053B94AB9002908BF00281CBF4FF0FF31CD
:1002C0004FF0FF3000F072B9ADF1080C6DE904CECB
:1002D00000F006F8DDF804E0DDE9022304B0704721
:1002E0002DE9F047089E04468846002B4BD18A42F0
:1002F000154667D9B2FA82F24AB1C2F1200701FA73
:1003000002F320FA07F7954047EA030894404FEAC2
:10031000154E230CB8FBFEF71FFA85FC0EFB178861
:1003200043EA084307FB0CF1994209D9EB1807F19E
:10033000FF3080F01B81994240F21881023F2B442C
:100340005B1AA4B2B3FBFEF00EFB103344EA034485
:1003500000FB0CFCA44509D92C1900F1FF3380F0F7
:100360000781A44540F2048102382C4440EA07404A
:10037000A4EB0C0400271EB1D4400023C6E90043BF
:100380003946BDE8F0878B4209D9002E00F0EB809A
:100390000027C6E9000138463946BDE8F087B3FAC0
:1003A00083F7002F47D18B4202D3824200F2FA80BA
:1003B000841A61EB030301209846002EE0D0C6E9C1
:1003C0000048DDE702B9FFDEB2FA82F2002A40F00F
:1003D0008F80491B4FEA154E1FFA85F80127B1FBA4
:1003E000FEFC230C0EFB1C1143EA014308FB0CF13D
:1003F000994207D9EB180CF1FF3002D2994200F272
:10040000CD808446591AA3B2B1FBFEF00EFB101446
:1004100043EA044408FB00F8A04507D92C1900F171
:10042000FF3302D2A04500F2B6801846A4EB0804C0
:1004300040EA0C409FE7C7F1200CBB4022FA0CFEBB
:100440004EEA030E01FA07F420FA0CF521FA0CF338
:100450004FEA1E482543B3FBF8F92C0C08FB19336F
:100460001FFA8EFA44EA034309FB0AF49C4202FA9B
:1004700007F200FA07F10BD91EEB030309F1FF3075
:1004800080F087809C4240F28480A9F10209734485
:100490001B1BADB2B3FBF8F008FB103345EA034475
:1004A00000FB0AFAA24508D91EEB040400F1FF3351
:1004B0006BD2A24569D90238744440EA0940A0FBD6
:1004C0000289A4EB0A044C45C2464B4654D351D092
:1004D000002E69D0B1EB0A0564EB030404FA0CFCAE
:1004E000FD40FC404CEA0505C6E90054002747E7FB
:1004F000C2F1200320FA03F7954001FA02F021FA35
:1005000003F34FEA154E3843010CB3FBFEF71FFA15
:1005100085F80EFB173341EA034107FB08F38B42D2
:1005200004FA02F407D9691807F1FF3C2FD28B4275
:100530002DD9023F2944CB1A81B2B3FBFEF00EFB4A
:10054000103341EA034100FB08F38B4207D96918D5
:1005500000F1FF3C17D28B4215D902382944C91A41
:1005600040EA07473BE73746304609E70746E7E6F4
:100570001846FBE64145ABD2B8EB020A69EB0E0226
:1005800001381346A4E76046E9E7184695E7674651
:10059000D1E781467CE702382C4447E7ACF1020CF6
:1005A0002B442FE7384608E73746E9E6704700BF97
:1005B00080B500AF0249002009F090FB00BF80BD6C
:1005C000051B000880B400AFBFF34F8FBFF36F8FE0
:1005D0000B4B0022C3F85022BFF34F8FBFF36F8F36
:1005E000074B5B69064A43F400335361BFF34F8FF7
:1005F000BFF36F8F00BFBD465DF8047B704700BF3F
:1006000000ED00E080B485B000AF1D4B0022C3F8C0
:100610008420BFF34F8F1A4BD3F880307B607B6808
:100620005B0BC3F30E03FB607B68DB08C3F30903BA
:10063000BB60FB685A0143F6E0731340BA68920747
:100640000F491343C1F86032BB685A1EBA60002BD1
:10065000EFD1FB685A1EFA60002BE5D1BFF34F8F34
:10066000074B5B69064A43F480335361BFF34F8FF6
:10067000BFF36F8F00BF1437BD465DF8047B704732
:1006800000ED00E0B0B586B000AF00F0C5FBFFF7AD
:1006900099FFFFF7B7FF02F079FF00F027F800F0AD
:1006A000EFFA00F0C3F800F0E3F800F03DFA00F0D4
:1006B00011F900F04FF900F003FA01F094F8094B3A
:1006C0003C1D1D460FCD0FC42B6823603B1D002130
:1006D000184607F0F2FC0246034B1A6007F0E6FCEE
:1006E000FEE700BF34BE01084416012080B5B4B057
:1006F00000AF07F1A0033022002118461AF009FCD0
:1007000007F18C0300221A605A609A60DA601A615D
:1007100007F108038422002118461AF0FAFB404B27
:100720001B6C3F4A43F0805313643D4B1B6C03F03A
:1007300080537B607B683B4B1B683A4A43F44043E1
:100740001360384B1B6803F440433B603B68012354
:10075000C7F8A0304FF48033C7F8A4300223C7F89D
:10076000B8304FF48003C7F8BC301923C7F8C03045
:100770004FF4C873C7F8C4300223C7F8C830022347
:10078000C7F8CC3007F1A003184605F0D9FF03469F
:10079000002B01D000F09AFB05F03AFA0346002B3B
:1007A00001D000F093FB0F23C7F88C300223C7F869
:1007B00090300023C7F894304FF4A053C7F8983016
:1007C0004FF48053C7F89C3007F18C03062118467C
:1007D00006F05AFA0346002B01D000F077FB124BCB
:1007E000BB604FF4C073FB6105237B6202233B6255
:1007F0000023BB6201233B634FF400337B63002380
:100800007B6707F10803184606F02EFC0346002B11
:1008100001D000F05BFB00BFD037BD4680BD00BFFC
:1008200000380240007000400800010080B500AFB1
:100830000D4B0E4A1A600C4B00221A710A4B002213
:100840005A71094B00225A61074B00229A61064BEC
:1008500001221A62044803F081F80346002B01D0FC
:1008600000F034FB00BF80BD78150120003002404D
:1008700080B500AF154B164A1A60144B00225A601F
:10088000124B00229A60114B0022DA600F4B0022BB
:100890009A620E4B0022DA620C4B00221A630B4B59
:1008A00000225A63094803F0B3F90346002B01D034
:1008B00000F00CFB0121054803F074FC0346002BFB
:1008C00001D000F003FB00BF80BD00BF481601202F
:1008D00000B0024080B500AF1B4B1C4A1A601A4B97
:1008E0001B4A5A60184B00229A60174B0122DA60AB
:1008F000154B00221A61144B00225A61124B002240
:100900009A61114B0022DA610F4B00221A620E48E5
:1009100004F044F80346002B01D000F0D7FA002180
:10092000094804F045FD0346002B01D000F0CEFA43
:100930000021054804F087FD0346002B01D000F09C
:10094000C5FA00BF80BD00BF2C150120005C00402F
:10095000FFEAC00080B59AB000AF07F1340334223B
:10096000002118461AF0D5FA3B46342200211846D9
:100970001AF0CFFA504B514A1A604F4B00225A607E
:100980004D4B00229A604C4B0022DA604A4B002209
:100990001A61494B28225A61474B09229A61464BFA
:1009A0003522DA61444B0B221A62434B40F2152286
:1009B0005A62414B40F21B129A623F4B40F2352281
:1009C000DA623D4B40F21D121A633B4B002283F862
:1009D0003420394B002283F83520374B002283F82E
:1009E0003620354804F07CFD0346002B01D000F092
:1009F0006DFA00237B634FF4F073BB630023FB634A
:100A00004FF488733B6402237B64FF23BB640023A1
:100A1000FB644FF480633B6505237B654FF04043E7
:100A2000BB654FF4F073FB654FF488733B6600239E
:100A300087F86430002387F86530002387F8663034
:100A400007F13403002219461B4804F0D1FE034687
:100A5000002B01D000F03AFA00233B6000237B60BA
:100A60000023BB600023FB6000237B610023BB618C
:100A70004FF48063FB6105233B6200237B6200230C
:100A8000BB620023FB62002387F83030002387F825
:100A90003130002387F832303B46012219460648A0
:100AA00004F0A6FE0346002B01D000F00FFA00BFB1
:100AB0006837BD4680BD00BF9C150120006801401D
:100AC00080B500AF164B174A1A60154B01225A60C9
:100AD000134B04229A60124B1022DA60104B18223A
:100AE0001A610F4B4FF4A0625A610D4B00229A61BC
:100AF0000B4B0022DA610A4B00221A62084805F00B
:100B0000D7F80346002B01D000F0E0F902F0AEF870
:100B100002F004F95C2002F09BFE00BF80BD00BF24
:100B2000BC160120001000A080B588B000AF3B1DAE
:100B300000221A605A609A60DA601A615A619A61FA
:100B40004C4B4D4A1A604B4B00225A60494B0022D5
:100B50009A60484B0422DA60464B10221A61454BDA
:100B600040225A61434B4FF4C0729A61414B0022BC
:100B7000DA61404B4FF400621A623E4B4FF48052F0
:100B80005A623C4B00229A6202237B600723BB60BF
:100B90000423FB6007233B6103237B610223BB61CA
:100BA0000223FB613B1D1946324806F04BFE03460B
:100BB000002B01D000F08AF900233B602F4B01226B
:100BC0001A602E4B10225A602C4B01229A602B4B3C
:100BD0000022DA604FF6FF722849264806F066FECA
:100BE000012002F00FFD254B02221A60234B102238
:100BF0005A60224B01229A60204B0022DA604FF6A5
:100C0000FF721E491B4806F051FE1C4B03221A605E
:100C10001A4B10225A60194B08229A60174B002277
:100C2000DA604FF6FF721549124806F03FFE4FF4A6
:100C30000C733B60114B04221A60104B10225A6057
:100C40000E4B01229A603B680C4AD3604FF6FF724C
:100C50000A49084806F02AFE40F22B71054806F0C2
:100C600050FE4FF0204343F2D2021A6000BF2037FB
:100C7000BD4680BD88160120400100A0380100203B
:100C800080B590B000AF07F12C0300221A605A60C3
:100C90009A60DA601A61584B1B6B574A43F0100395
:100CA0001363554B1B6B03F01003BB62BB6A524BC3
:100CB0001B6B514A43F0010313634F4B1B6B03F053
:100CC00001037B627B6A4C4B1B6B4B4A43F0020374
:100CD0001363494B1B6B03F002033B623B6A464BB9
:100CE0001B6B454A43F040031363434B1B6B03F0FC
:100CF0004003FB61FB69404B1B6B3F4A43F40073AD
:100D000013633D4B1B6B03F40073BB61BB693A4B30
:100D10001B6B394A43F008031363374B1B6B03F01B
:100D200008037B617B69344B1B6B334A43F480635C
:100D30001363314B1B6B03F480633B613B692E4BA8
:100D40001B6B2D4A43F0200313632B4B1B6B03F0EB
:100D50002003FB60FB68284B1B6B274A43F480731E
:100D60001363254B1B6B03F48073BB60BB68224B82
:100D70001B6B214A43F0800313631F4B1B6B03F073
:100D800080037B607B681C4B1B6B1B4A43F0040396
:100D90001363194B1B6B03F004033B603B68012298
:100DA0000821164803F0E0FD01224FF48051144859
:100DB00003F0DAFD0823FB6201233B6300237B631E
:100DC0000023BB6307F12C0319460C4803F018FB02
:100DD0004FF48053FB6201233B6300237B630023BA
:100DE000BB6307F12C031946054803F009FB00BF5C
:100DF0004037BD4680BD00BF003802400028024099
:100E00000020024080B582B000AF786000F0F1FCB5
:100E1000012007F079F9FBE780B584B000AF3B46CD
:100E200000221A605A609A60DA6002F01FFD012306
:100E30003B7000237B704FF010437B601B233B72A1
:100E400000237B720023BB720323FB7200233B73DE
:100E500000237B730023BB730023FB733B461846C0
:100E600002F038FD01233B7001237B704FF01043EB
:100E70007B6017233B7200237B720023BB7203232A
:100E8000FB7200233B7300237B730123BB7300239E
:100E9000FB733B46184602F01DFD042002F0FCFCEB
:100EA00000BF1037BD4680BD80B582B000AF78600E
:100EB0007B681B68044A934201D102F083FB00BFA8
:100EC0000837BD4680BD00BF0010004080B400AFB1
:100ED00000BFBD465DF8047B7047000080B483B05E
:100EE00000AF0F4B1B6C0E4A43F0805313640C4B46
:100EF0001B6C03F080537B607B68094B5B6C084A7A
:100F000043F480435364064B5B6C03F480433B60C3
:100F10003B6800BF0C37BD465DF8047B704700BFDF
:100F20000038024080B485B000AF78607B681B68F1
:100F30000A4A93420BD10A4B1B6B094A43F4805374
:100F40001363074B1B6B03F48053FB60FB6800BF0C
:100F50001437BD465DF8047B704700BF0030024087
:100F60000038024080B584B000AF78607B681B68B1
:100F70000D4A934213D10D4B1B6B0C4A43F40003F3
:100F800013630A4B1B6B03F40003FB60FB68002236
:100F900005215A2002F032FC5A2002F04BFC00BF1F
:100FA0001037BD4680BD00BF00B00240003802408F
:100FB00080B582B000AF78607B681B68074A9342B7
:100FC00008D1074B1B6B064A23F4000313635A2016
:100FD00002F03EFC00BF0837BD4680BD00B00240B5
:100FE0000038024080B58AB000AF786007F1140382
:100FF00000221A605A609A60DA601A617B681B6886
:10100000174A934228D1174B1B6B164A43F08003B3
:101010001363144B1B6B03F080033B613B694FF47C
:10102000C0737B611223BB610123FB6103233B621D
:1010300004237B6207F1140319460B4803F0E0F91F
:10104000084B1B6C074A43F400031364054B1B6CED
:1010500003F40003FB60FB6800BF2837BD4680BD7A
:10106000005C004000380240001C024080B582B0A5
:1010700000AF78607B681B680A4A93420ED10A4B26
:101080001B6C094A23F4000313648021074803F012
:1010900061FB4FF48071054803F05CFB00BF08372B
:1010A000BD4680BD005C004000380240001C02408C
:1010B00080B58EB000AF786007F1240300221A607B
:1010C0005A609A60DA601A617B681B68554A9342DD
:1010D00040F0A380544B5B6C534A43F080635364ED
:1010E000514B5B6C03F080633B623B6A4E4B1B6B66
:1010F0004D4A43F0100313634B4B1B6B03F010037B
:10110000FB61FB69484B1B6B474A43F40073136355
:10111000454B1B6B03F40073BB61BB69424B1B6BFC
:10112000414A43F4806313633F4B1B6B03F48063BA
:101130007B617B693C4B1B6B3B4A43F04003136371
:10114000394B1B6B03F040033B613B69364B1B6B18
:10115000354A43F480731363334B1B6B03F4807382
:10116000FB60FB6810237B620223BB620023FB62EF
:1011700000233B630E237B6307F1240319462B48AE
:1011800003F03EF94EF6FF737B620223BB6200233D
:10119000FB6200233B630E237B6307F124031946A4
:1011A000234803F02DF9F7237B620223BB6200235F
:1011B000FB6200233B630E237B6307F12403194684
:1011C0001C4803F01DF94FF480537B620223BB627D
:1011D0000023FB6200233B6309237B6307F12403A5
:1011E0001946154803F00CF94FF446437B6202237D
:1011F000BB620023FB6200233B630E237B6307F18A
:10120000240319460D4803F0FBF80022052158205D
:1012100002F0F4FA582002F00DFB00BF3837BD464B
:1012200080BD00BF0068014000380240001002404D
:101230000024024000280240001802400020024022
:1012400080B58CB000AF786007F11C0300221A60F3
:101250005A609A60DA601A617B681B683B4A934265
:1012600070D13B4B9B6B3A4A43F002039363384B7C
:101270009B6B03F00203BB61BB69354B1B6B344AAC
:1012800043F010031363324B1B6B03F010037B61BD
:101290007B692F4B1B6B2E4A43F0020313632C4BCD
:1012A0001B6B03F002033B613B69294B1B6B284A14
:1012B00043F008031363264B1B6B03F00803FB602A
:1012C000FB680423FB6102233B6200237B62032350
:1012D000BB620923FB6207F11C0319461D4803F09A
:1012E0008FF84023FB6102233B6200237B620323D0
:1012F000BB620A23FB6207F11C031946164803F080
:101300007FF80423FB6102233B6200237B620323FB
:10131000BB620923FB6207F11C0319460E4803F068
:101320006FF84FF46053FB6102233B6200237B6242
:101330000323BB620923FB6207F11C03194607481C
:1013400003F05EF800BF3037BD4680BD001000A03E
:10135000003802400010024000040240000C02402D
:1013600080B582B000AF78607B681B680C4A9342FE
:1013700012D10C4B9B6B0B4A23F0020393630421A5
:10138000094803F0E7F94421084803F0E3F94FF472
:101390006051074803F0DEF900BF0837BD4680BD45
:1013A000001000A00038024000100240000402407B
:1013B000000C024080B586B000AF3B1D00221A60D1
:1013C0005A609A60DA601A613A4B1B68002B6DD143
:1013D000384B01221A60384B9B6B374A43F00103AC
:1013E0009363354B9B6B03F001033B603B684FF607
:1013F00083737B600223BB600023FB6003233B619C
:101400000C237B613B1D19462C4802F0F9FF48F282
:1014100033137B600223BB600023FB6003233B612B
:101420000C237B613B1D1946254802F0E9FF4CF275
:1014300003737B600223BB600023FB6003233B61DB
:101440000C237B613B1D19461E4802F0D9FF4FF665
:101450003F037B600223BB600023FB6003233B61EF
:101460000C237B613B1D1946174802F0C9FF282356
:101470007B600223BB600023FB6003233B610C23E2
:101480007B613B1D1946114802F0BAFF08237B60BF
:101490000223BB600023FB6003233B610C237B61C1
:1014A0003B1D19460A4802F0ABFF00E000BF1837A9
:1014B000BD4680BD480100200038024000100240B7
:1014C00000180240000C024000140240001C0240C0
:1014D0000008024080B582B000AF7860FFF76AFF75
:1014E00000BF0837BD4680BD80B58CB000AF7860C6
:1014F0000023FB620023BB6200227968362002F0E1
:101500007DF9362002F096F91F4B1B6C1E4A43F002
:10151000100313641C4B1B6C03F01003FB60FB688F
:1015200007F1100207F114031146184605F06AFD91
:1015300005F054FD03465B00FB62FB6A134AA2FB05
:1015400003239B0C013BBB62114B124A1A60104BE8
:1015500040F2E732DA600E4ABB6A53600C4B00225D
:101560001A610B4B00229A60094806F0EAF903461B
:10157000002B04D1064806F019FA034600E00123C7
:1015800018463037BD4680BD0038024083DE1B431D
:10159000081701200010004080B400AF00BFBD4616
:1015A0005DF8047B704780B400AFFEE780B400AF05
:1015B000FEE780B400AFFEE780B400AFFEE780B482
:1015C00000AF00BFBD465DF8047B704780B500AF3B
:1015D000024806F015FA00BF80BD00BF08170120C1
:1015E00080B500AF024804F04BF800BF80BD00BFDB
:1015F0009C15012080B500AF024802F0C2FC00BF7C
:1016000080BD00BF4816012080B400AF01231846FA
:10161000BD465DF8047B704780B582B000AF78604E
:10162000396019F01FFC0246162313604FF0FF3398
:1016300018460837BD4680BD80B582B000AF7860DF
:101640004FF0FF317868FFF7E7FFFEE780B586B01F
:1016500000AFF860B9607A6000237B610AE0AFF305
:1016600000800146BB685A1CBA60CAB21A707B6916
:1016700001337B617A697B689A42F0DB7B681846AC
:101680001837BD4680BD80B586B000AFF860B96040
:101690007A6000237B6109E0BB685A1CBA601B7842
:1016A0001846AFF300807B6901337B617A697B6800
:1016B0009A42F1DB7B6818461837BD4680BD80B47E
:1016C00083B000AF78604FF0FF3318460C37BD464B
:1016D0005DF8047B704780B483B000AF78603960F8
:1016E0003B684FF400525A60002318460C37BD4641
:1016F0005DF8047B704780B483B000AF786001234D
:1017000018460C37BD465DF8047B704780B485B041
:1017100000AFF860B9607A60002318461437BD4600
:101720005DF8047B7047000080B586B000AF78603C
:10173000144A154BD31A7B617B693B61134B1B68C1
:10174000002B02D1114B124A1A60104B1A687B68A9
:1017500013443A699A4207D219F084FB02460C23DB
:1017600013604FF0FF3309E0084B1B68FB60074B29
:101770001A687B681344054A1360FB6818461837DB
:10178000BD4680BD00000520000A00004C0100207D
:10179000A0170120DFF834D0002103E00C4B5B5888
:1017A000435004310B480C4B42189A42F6D30B4A73
:1017B00002E0002342F8043B094B9A42F9D301F0BE
:1017C000D7FC19F067FBFEF75DFF704700000520AE
:1017D000C4EB0108000000201C0100201C010020B7
:1017E0009C170120FEE780B500AF00F08BFC00BF26
:1017F00080BD80B500AF00F0F5FC00BF80BD406843
:101800007047416070470000094A136843F08073D5
:101810001360A2F54E42074B4C3A11680B4313601C
:10182000A2F57B62136843F001031360704700BFA9
:10183000FCED00E055CEACC5521A02EB5302B2FBF0
:10184000F3F07047014B1868704700BF041000E0C8
:10185000704710B504460C2119F0A6FA204610BDB9
:10186000036810B51B69044631B19847A2686368E4
:101870009B1A1844606010BD9847A060FBE7000009
:10188000024B7020024A1360DB6818470C000020EE
:101890005001002070B50A4C0E46154623680BB95E
:1018A000002070BD1B69702098470028F8D023687D
:1018B0007020324629465B6998470120F1E700BF56
:1018C00050010020704710B50446042119F06CFA4D
:1018D000204610BD10B586B0012306AC04F8012DDA
:1018E0004FF47A720094CDE901320A460146044869
:1018F00003F014F910B1024803F0E0F806B010BD8F
:101900002C1501207FB5002306AA4FF47A7C02F83B
:10191000013D012300920A4601460748CDE9013CFA
:1019200003F010FA10B1044803F0C8F89DF817004E
:1019300007B05DF804FB00BF2C150120704770470D
:101940007047012380F8741080F8753070470020CC
:10195000704700207047836B0BB1084618477047EB
:101960004FF6FF707047406803689B6918477047DF
:101970007047704708B531B90A4B40F26B210A4AEB
:101980000A4819F03DFAC0E90F12003243640849D1
:1019900018BF012200330A7018BF0123054A1370D3
:1019A00008BD00BFD8BE010814C0010810BF01085F
:1019B0008E1201208F12012000F0B2BC00F0B6BCE4
:1019C000F8B500F0BBFC134A0023C2F88430BFF323
:1019D0004F8FD2F8803043F6E076C3F3C904C3F3E7
:1019E0004E33A5075B0103EA060C284621464CEA64
:1019F0000007013900F14040C2F874724F1CF6D163
:101A0000203B13F1200FEED1BFF34F8FBFF36F8F49
:101A1000F8BD00BF00ED00E000F092BC00F05CBC3F
:101A200000F090BC00F098BC00F060BC10B504461B
:101A300009F0F2FD23682046D3F89030BDE810404D
:101A4000184709F061B810B504467C2119F0ACF9CB
:101A5000204610BD90F877301BB1406803681B68C2
:101A6000184718467047000030B590F8341090F8C9
:101A70007440104B8C421A780DD05AB90E4A0F4957
:101A800014880F480C8001880E4D11800122298096
:101A900004801A7030BD002AFCD00948074A01882A
:101AA000084D1180044A1488118000222C80048083
:101AB000EFE700BF88120120841201208A12012062
:101AC000861201208C12012038B5044600F058FC23
:101AD000094A4FF04041236820461D6F074BA84735
:101AE0000023074D84F84A302846FFF78DFE012376
:101AF000256184F86C3038BD00FC03C000F807C0D5
:101B00005401002008B5054B01461B6800B10121B6
:101B1000184609F09BFD012008BD00BF901201206E
:101B2000034B00225A609A60024A1A60704700BF55
:101B300054010020A0BE010808B501210B4806F0A1
:101B4000F7FA0B4B186028B90A4B25210A4A0B48B3
:101B500019F056F901210A4806F0EAFA094B186013
:101B600018B9094B2821044AF1E708BD68C00108EB
:101B7000600100206CC0010846C10108B5C0010821
:101B800064C00108640100200AC10108024B4FF043
:101B9000FF31186806F0F0BA60010020014B1868A8
:101BA00006F038BB60010020024B0021186806F0E7
:101BB000E3BA00BF60010020FFF7F0BF014B1868D7
:101BC00006F028BB6401002010B5064C00212068F7
:101BD00006F0D2FA20684FF0FF31BDE8104006F061
:101BE000CBBA00BF64010020134A0023F0B5C2F84D
:101BF0008430BFF34F8FD2F8803043F6E076C3F3E2
:101C0000C904C3F34E33A5075B0103EA060C28465B
:101C100021464CEA0007013900F14040C2F87472D5
:101C20004F1CF6D1203B13F1200FEED1BFF34F8FA5
:101C3000BFF36F8FF0BD00BF00ED00E003685B6C89
:101C400018470020704703689B6A184740F2EF105E
:101C50007047000010B5074C074B2046236001F089
:101C6000D7FF064B4FF080622361054B6361054B44
:101C70009A6010BD4816012000B00240A51C000863
:101C8000891C000800E100E008B5034A3E21034B2F
:101C9000034819F0B5F800BF18C20108D2E20108E4
:101CA00075C1010810B5FFF79FFF044B1B6858680A
:101CB0000368BDE810405B69184700BF901201201F
:101CC000084B10B503600446074801F0EBFF074BD3
:101CD0004FF08062C3F88820BFF34F8FBFF36F8F40
:101CE000204610BDD0C101084816012000E100E0E7
:101CF00010B50446FFF7E4FF4FF44261204619F0A7
:101D000053F8204610BD0000044B1B6893F8762062
:101D10000AB1D86C00B99868704700BF90120120D2
:101D20002DE9F7430D680C46202D00F09B80402DD7
:101D300000F098802A1F56425641802D00F0948072
:101D4000A5F580735D425D41FFF7DEFF0368DB6947
:101D5000984723688646402B00F09D8000F28680DD
:101D6000042B00F09180202B00F09580BEF1100F25
:101D70004FF0000214BF4FF0010C4FF0020C4D4B1E
:101D8000BEF1100FB4F81080196818BF0120E78A5F
:101D900008BF0220D1F800905A60A7EB080729F489
:101DA00040399860DF6049EA02020A604A6BC3F872
:101DB0002CC022F0070202434A630A6C22F47F52CD
:101DC00022F03F023A430A64A28AA2EB08029A6216
:101DD00006B995B3227FFF2A15BF02210022C3E96D
:101DE0000C121A631DB3227FBEF1100FA1694FEAD6
:101DF000026C53D1C1F3C4224FF01F08C2EB022280
:101E0000B2FBF8FE01EA0802C1F34511C2EB02225F
:101E1000C1EB0121B2FBF8F242EA0C024FF03F0C99
:101E2000B1FBFCF142EA0E4242EA01225A63002170
:101E3000C3E906701F4802F0B5F901211D4802F000
:101E4000B1F9FFF7D1FE238A628A06B955B36168FA
:101E50001848CDE90032E3681A4601F0C6FF03B026
:101E6000BDE8F08301266BE701256DE7802B06D0E6
:101E7000B3F5807F7FF47AAF4FF0090C01E04FF0AB
:101E80000A0C4FF400327AE7102814BF4FF0010C0F
:101E90004FF0020CF5E74FF0000CF2E74CEA0101BD
:101EA0005963C4E700926168E268024801F06AFF82
:101EB000D5E700BF48160120F7B50D46FFF724FF10
:101EC0000368DB6998471028AB69297F6AD103F062
:101ED0001F021F20C2EB0222B2FBF0F4C3F3C422A4
:101EE00044EA0164C3F345130221C2EB0222C3EBAF
:101EF0000323B2FBF0F244EA02443F22B3FBF2F3C5
:101F000044EA03242B682948082BEE8A02682B8AAE
:101F10000CBF4FF400374FF44037F61A1368B7F58B
:101F2000003F23F44033C66043EA0703C0E9017170
:101F30001360536B23F0070343EA01035363136CED
:101F400023F47F5323F03F0343EA060313641ED1B7
:101F50000123C0E90C340923C0E90661C3620021F2
:101F600002F020F90121114802F01CF9FFF73CFEB4
:101F7000B7F5003F2B8A6A8A0DD1E9680B48CDE995
:101F800000320B460A4601F030FF03B0F0BD0023DB
:101F9000C1628362E6E700922146EA68034801F0E5
:101FA000F1FEF2E743EA01640121ABE748160120A4
:101FB00070B505460A4B0C3000262C46602268603E
:101FC0002E726E7244F8203B214609F0A1FC05F503
:101FD0004263A6612034A342FBD1284670BD00BFF6
:101FE000D0C10108012070470C2070470C2303FB6F
:101FF0000100083070470C2303FB010008307047D4
:10200000012070476C2070476C2303FB01000830EF
:1020100070476C2303FB01000830704701207047B4
:102020001020704700EB01100830704700EB0110E2
:1020300008307047084600F0BFBA0000034B10B5E7
:102040000446036008F074FB204610BDBCC20108C2
:1020500010B50446FFF7F2FF1421204618F0A4FE45
:10206000204610BD034B10B50446036008F060FB2A
:10207000204610BD88C2010810B50446FFF7F2FFE4
:102080007421204618F090FE204610BD034B10B579
:102090000446036008F04CFB204610BD54C2010802
:1020A00010B50446FFF7F2FF1821204618F07CFE19
:1020B000204610BD084B10B5044640F8A03BFFF782
:1020C000BDFF04F12C00FFF7CDFF04F11400FFF772
:1020D000DDFF204610BD00BFF0C2010808B5024870
:1020E000FFF7E8FF08BD00BF6C01002010B50446F3
:1020F000FFF7E0FF4FF40471204618F055FE20462C
:1021000010BD00002DE9F34100F09EF900240546C2
:1021100000F09EF9234601462246284600940DF021
:1021200027F8254B254A2046254D1A6000F0FEFC75
:1021300024480CF05FFF2B78BFF35B8FDB0735D4AF
:10214000284618F033FE88B31F4C204B04F1B80624
:1021500004F1140004F12C0804F1A0076060C4F835
:102160000880E7602661236008F0E4FA184B4046D7
:10217000636108F0DFFA174B3846E36208F0DAFAD9
:10218000154B04F1B400C4F8A03000F039FD22462C
:1021900004F1B401304600F029FD304600F00CFA9D
:1021A000284618F00FFE0D4818F048FE0C4802B003
:1021B000BDE8F041FFF788BCEC1201201C100020A4
:1021C00068010020040000206C010020F0C201081A
:1021D00054C2010888C20108BCC20108DD20000801
:1021E000A00F0020014808F0C0BC00BFA00F0020D5
:1021F00070B5294E294B2A4C30462A4D2360FFF7F3
:10220000D7FE284610F042F8274B0022012127482C
:10221000DC601A8583F82A20DA621A8683F848205F
:1022200083F8491083F84A205A6558664FF4F070D5
:1022300083F8682083F8692083F86A2083F86B208C
:1022400083F86C201A6783F8752083F87620184C81
:10225000C3E90422C3E90622C3E90822C3E90E2226
:10226000C3E91022C3E91322C3E9016583F877109B
:1022700083F878100F4983F834200B600E490880EA
:102280004FF4887121800D4C22700D4C0D4A208036
:102290000D481A60018070BD80030020C8BE01088F
:1022A0007C03002020100020A00F0020010000016E
:1022B0008612012090120120841201208812012030
:1022C0008A12012060BF01088C1201200148FFF72B
:1022D000F7BC00BF80030020034B902283F85A23F1
:1022E00083F85823704700BF00E100E0094A0A491B
:1022F000D3680A48C3F30A03013B9BB20B80116900
:10230000C1F30A01013901801364536B43F00103E7
:1023100053637047006801409A1000209810002015
:10232000014B986A704700BF84680140024B01224C
:10233000996243F8602C70478468014008F0EABB5A
:1023400008F01DBD034B4FF080629A604FF0807221
:102350009A60704700E100E0084B4FF08062C3F8DC
:102360008820BFF34F8FBFF36F8F4FF08072C3F899
:102370008820BFF34F8FBFF36F8F704700E100E0FD
:1023800070B5044608F0C0FE2368DD6C0AF0D2FA8E
:1023900001462046A84723682046044A1D6F4FF097
:1023A00040410023AC46BDE87040604700FC03C0DC
:1023B000134B144A1B6C11888B4210B5124C13D16D
:1023C000124B198803F052FA226892F866300133F2
:1023D00082F86630FFF7F2FB206809F01DF9002053
:1023E000BDE81040FFF7AABA03F040FA0020FFF75B
:1023F000A6FA20680368BDE810409B69184700BF33
:10240000006801409A1000209012012098100020CE
:10241000704710B50446042118F0C6FC204610BDD4
:10242000012908B508D003D3022909D0002002E011
:1024300000F0B6FB006808BD00F0B2FB4068FAE7A8
:1024400000F0AEFB8068F6E70048704710C3010853
:102450000120704713B5002249B102AB019203F885
:10246000052D0268946801AAA04702B010BD084675
:10247000FBE740897047808970478088704783797F
:102480008088184480B27047C07900F07F007047A0
:10249000C079C0097047704700F5967308684968AD
:1024A00003C370477047704741607047704701230E
:1024B000037270477047704710B4C46803464168A0
:1024C0006210E4079B6801EB020048BF8A585DF880
:1024D000044B48BFD358184743682BB183682BB9C6
:1024E000C06800F00100704718467047012070472F
:1024F00010B504460C2118F057FC204610BD10B54D
:1025000004464FF4AC7118F04FFC204610BD10B5D6
:102510000446102118F048FC204610BD10B50AF002
:1025200009FA0368BDE810401B6B184710B5044654
:10253000D0F83C0158B10368DB68984738B1D4F84B
:102540003C0103689B6898470023C4F83C3110BDE8
:1025500070B504460D4616460AF00EFA124A0021DE
:10256000C4F854511460114D114AC4F84811226046
:10257000104A2868C4F84C11C4F840210268C4F815
:1025800038119268C4F83C11C4F84411C4F8506181
:1025900090472B6893F876200AB1D86C00B99868F8
:1025A00011F0D7FA204670BDDC12012090120120F4
:1025B00044C301082CC30108064BC0F84401C0F80D
:1025C00048310023C0F84C3100F5A073C0F83C310D
:1025D000704700BF152700082DE9F04707469068AF
:1025E0009946884603681546DDF820A01B6A98477F
:1025F0006B2805D8414BA721414A424818F000FCFE
:10260000686803681B6A98470F2803D83E4BA821C7
:102610003B4AF2E7E86803681B6A98470B2803D82F
:102620003A4BA921364AE8E70AF084F90AF088F91A
:10263000D9F8000010B10368DB689847D9F80000AA
:1026400010B103681B689847386810B103685B696C
:102650009847D8F8000010B103685B68984738685D
:1026600010B103681B689847D8F8000010B10368E0
:102670009B689847E868002103685B6A98470446AE
:1026800020B1002343600372214B0360A86800213E
:1026900003685B6A9847064608B100F0DDFA68688F
:1026A000002103685B6A9847054610B1314600F087
:1026B000B9FAC9F80040C8F800503E60E5B12B1DDA
:1026C000CAF8003030463368C5F808A0DB68F56307
:1026D00098472B6828461B689847214630460BF0E0
:1026E00044FD236820461B699847236820465B69A0
:1026F00098472846BDE8F0872B46E1E7A4C30108C8
:10270000BFC5010832C4010879C401081CC501080D
:1027100088C30108D0F8543107B500F59C710093C7
:10272000044BD0F850210448FFF756FF03B05DF882
:1027300004FB00BFD0120120CC120120006A7047B8
:1027400070478B888069DB0A0A6850F823001044C0
:10275000704710B5C2B1137BB3B1547BD27A240257
:1027600004F4E0641443C26998B202EB8402138853
:102770008B4202D192F9020010BD05D80138043213
:1027800080B20028F3D1F7E70020F5E710B5044642
:10279000242118F009FB204610BD000030B589B097
:1027A0000446BDF850500695BDF84C5005959DF86F
:1027B000405004959DF83C5003959DF83850029583
:1027C0009DF8345001959DF8305000950BF0D0F8ED
:1027D000054B20462360119BA361129BE361159B6F
:1027E000236209B030BD00BFCCC60108002070478D
:1027F00081807047C1807047018170474181704777
:1028000070477047704770477047C388D21A8388F3
:10281000C91A036812B21B6D09B210B45DF8044BFB
:1028200018474FF6FF7383814FF0FF33036213683D
:10283000C3611060704770477047704770477047BA
:1028400090F825201AB190F8242002B11860704742
:102850007047704710B504466C2118F0A5FA204661
:1028600010BD000070B504460BF004FB0023244AA1
:1028700025464FF4F071E36345F8402B0122A4F89C
:102880004430284684F865201E4AA4F84630226465
:10289000FF22A4F84830A4F84A30A4F84C30A4F839
:1028A0004E30A4F85030A4F85230E36584F8643018
:1028B000A36684F86620C4E91533FFF79DFF4FF443
:1028C00088712846FFF79AFF0F4B1B682BB90F4BF7
:1028D00035210F4A0F4818F093FA93F876200AB181
:1028E000D86C00B9986803689E6A002319461A4696
:1028F000B0472946A066201D07F0C6FF204670BDE0
:10290000A8C701089CD401089012012018C701082B
:10291000D4C701085BC701087047000030B5144DEB
:102920008BB02C78BFF35B8F14F001041DD12846C7
:1029300018F03CFAC8B13F2301220E4907930E4B11
:10294000039406930D4B00940D48CDE904430423F2
:10295000CDE90844CDE901320A23FFF71FFF2846DD
:1029600018F030FA074818F069FA05480BB030BD86
:102970009C1000207801009090EB010830C80108FD
:10298000A0100020192900087047000030B5144D30
:102990008BB02C78BFF35B8F14F001041DD1284657
:1029A00018F004FAC8B13F2301220E4907930E4BD9
:1029B000039406930D4B00940D48CDE90443042382
:1029C000CDE90844CDE901321423FFF7E7FE28469C
:1029D00018F0F8F9074818F031FA05480BB030BD87
:1029E000C41000208801009094EB010834C801084D
:1029F000C8100020892900087047000030B5144D28
:102A00008BB02C78BFF35B8F14F001041DD12846E6
:102A100018F0CCF9C8B13F2301220E4907930E4BA1
:102A2000039406930D4B00940D48CDE90443042311
:102A3000CDE90844CDE901322823FFF7AFFE28464F
:102A400018F0C0F9074818F0F9F905480BB030BD87
:102A5000EC1000209801009098EB010838C801089C
:102A6000F0100020F9290008002070470EB403B5CB
:102A700003AB002153F8042B01930AF0AFFD02B021
:102A80005DF804EB03B070470CB407B504AB53F822
:102A9000042B01930AF0A2FD03B05DF804EB02B031
:102AA00070470000C36B10B5044673B3038E2BB997
:102AB000184BC021184A194818F0A2F9C38D00EB31
:102AC00043035B8B0BB30CF04FF8238E012B03D821
:102AD000134BC521134AEEE7E28D40F63F10531C1D
:102AE0009BB2092B194688BFA3F10A0104EB4101EF
:102AF000498B814209D10A2B04EB420228BF0023F3
:102B0000508B04EB4303588351832046BDE81040AB
:102B10000BF00EBF3CC801086FC9010845C8010889
:102B20008FC801089DC801080BF0BCBE38B5D8B9E4
:102B3000114B12481B681249BBB11A689C681A44B1
:102B40001C4402605A681A440A606CB10D4B0022A2
:102B50001A8000F025F8054600F020F80A4B1C60AA
:102B60000A4B1D600A4B188038BD0A4A0B600A4B9D
:102B700002601C68E9E700BF141100201811002052
:102B80001C11002020110020E0120120E812012079
:102B9000E4120120A8010090B001009001207047CC
:102BA000004870472411002010B5054CFFF7EEFED9
:102BB0002060FFF723FF6060FFF7B0FEA06010BD4C
:102BC00024110020704710B504464FF4AC7118F082
:102BD000EBF8204610BD10B50446D0F8540100F0C3
:102BE00012F82046BDE8104009F07CBD10B504463F
:102BF000FFF7AEFC014B2046236010BD24CA01083C
:102C00000022026070477047704704387047704771
:102C100010B50446102118F0C7F8204610BDA0F1E9
:102C20000400F5E70022C1608260044A10B502F199
:102C3000080420320460426010BD00BF60CA010871
:102C400070477047FFF705BE10B504466C2118F0B9
:102C5000ABF8204610BD000010B50446FFF702FE99
:102C6000014B2046236010BD90CA010880B582B098
:102C700000AF284B284A1A60264803F095F803460F
:102C8000002B01D0012341E00021224800F078F818
:102C9000204B01225A601F4B04229A601D4B1022C8
:102CA000DA604FF080737B607B6893FAA3F33B603C
:102CB0003B68B3FA83F3DBB2013B1A46154B1A614A
:102CC000144B4FF4A0625A61124B00229A61114BCF
:102CD0000022DA610F4B00221A620E4802F0E8FF70
:102CE0000346002B01D0012310E00A4800F008F948
:102CF0000346002B01D0042308E0064800F042F907
:102D00000346002B01D0042300E0002318460837B7
:102D1000BD4680BD48170120001000A080B590B0CE
:102D200000AF4FF480733B62EB23BB604FF4406312
:102D30007B624FF400537B610023BB624FF0407312
:102D4000FB620A23FB6100237B630023BB63002338
:102D5000FB6300237B6000233B603A4607F10803D6
:102D60001946064803F052FA0346002B01D001230E
:102D700000E0002318464037BD4680BD48170120BB
:102D800080B58EB000AF78603960594B9B6B584A64
:102D900043F002039363564B9B6B03F002033B62C9
:102DA0003B6A534B9B69524A43F002039361504B79
:102DB0009B694F4A23F0020393614D4B1B6B4C4AB6
:102DC00043F0020313634A4B1B6B03F00203FB61E6
:102DD000FB69474B1B6B464A43F002031363444BAA
:102DE0001B6B03F00203BB61BB69414B1B6B404A89
:102DF00043F0080313633E4B1B6B03F008037B6136
:102E00007B693B4B1B6B3A4A43F008031363384B17
:102E10001B6B03F008033B613B69354B1B6B344A6A
:102E200043F010031363324B1B6B03F01003FB6082
:102E3000FB682F4B1B6B2E4A43F0080313632C4B8C
:102E40001B6B03F00803BB60BB6840237B6202235B
:102E5000BB620123FB6203233B630A237B6307F10D
:102E600024031946234801F0CBFA04237B62002394
:102E7000FB6209237B6307F1240319461D4801F017
:102E8000BFFA4FF400637B6209237B6307F12403DD
:102E90001946194801F0B4FA4FF480537B620923B4
:102EA0007B6307F124031946134801F0A9FA0423B0
:102EB0007B6209237B6307F1240319460F4801F065
:102EC0009FFA4FF400537B6209237B6307F12403CD
:102ED0001946094801F094FA00220F215C2000F005
:102EE0008DFC5C2000F0A6FC00BF3837BD4680BDDD
:102EF0000038024000040240000C02400010024072
:102F000080B590B000AF78604FF480733B62662369
:102F1000BB6000237B620023BB620023FB620023B3
:102F2000FB6100237B630023BB630023FB6307F18A
:102F3000080341F288321946786802F059FF0346C7
:102F4000002B01D0012319E09923BB6007F108038E
:102F500041F288321946786802F04AFF0346002B96
:102F600001D001230AE041F28831786800F0C7F807
:102F70000346002B01D0012300E000231846403710
:102F8000BD4680BD80B594B000AF78604FF48073CB
:102F9000BB6285233B610023FB6200233B634FF050
:102FA00080737B6300237B620123BB630023FB638D
:102FB00000233B6400237B6407F1100341F2883255
:102FC0001946786802F014FF0346002B01D0012354
:102FD00048E007F10F0341F288321946786802F0A1
:102FE000FCFF0346002B01D001233BE0786800F092
:102FF0003DF80346002B01D0012333E081233B61E0
:10300000FB7B5BB203F00F035AB2F023FB64FB6C53
:1030100093FAA3F3BB64BB6CB3FA83F3DBB2194638
:103020000A238B405BB213435BB2DBB2FB7307F145
:10303000100341F288321946786802F0D9FE03463F
:10304000002B01D001230DE007F10F0341F288327C
:103050001946786802F02AFF0346002B01D00123AD
:1030600000E0002318465037BD4680BD80B596B0BD
:1030700000AF78604FF48073BB6306233B6200238C
:10308000FB6300233B6400237B6400237B630023FA
:10309000FB6400233B6500237B6507F1200341F2BD
:1030A00088321946786802F0A3FE0346002B01D04F
:1030B000012320E00223BB600223FB600023BB61ED
:1030C00001237B6110233B614FF48003FB610523E7
:1030D0003B624FF080737B6407F1080207F1200127
:1030E00041F28833786803F01AF80346002B01D0C8
:1030F000012300E0002318465837BD4680BD80B547
:1031000096B000AF786039604FF48073BB630523DD
:103110003B620023FB6300233B644FF080737B64BE
:1031200000237B630023FB6400233B6500237B6556
:103130000023BB600123FB600023BB6101237B6193
:1031400010233B614FF48003FB6107F1080207F194
:1031500020013B68786802F0E2FF0346002B01D0B3
:10316000012300E0002318465837BD4680BD00000B
:1031700080B400AF154BD3F88830144A43F4700381
:10318000C2F88830124B1B68114A43F001031360E8
:103190000F4B00229A600E4B1A680D490D4B1340DD
:1031A0000B600B4B0C4A5A60094B1B68084A23F40E
:1031B00080231360064B0022DA60044B4FF000625C
:1031C0009A6000BFBD465DF8047B704700ED00E0EB
:1031D00000380240FFFFF6FE1030002480B582B0B8
:1031E00000AF0346FB8000F0B5F900BF0837BD46CD
:1031F00080BD80B483B000AF0346FB8000BF0C37B6
:10320000BD465DF8047B704780B584B000AF0346CF
:10321000FB8000237B730023FB730023BB7300F050
:1032200099F90023FB7310E0FB88DBB2A821184654
:10323000FEF768FB03467B737B7BDBB2512B01D12E
:103240000123BB73FB7B0133FB73FB7B022B02D897
:10325000BB7B002BE8D07B7BDBB29BB218461037E0
:10326000BD4680BD80B582B000AF0346FB80FB88C1
:10327000184600F07DF9FB88184600F033F900BFCE
:103280000837BD4680BD000080B584B000AF03465E
:10329000FB800023FB73FB88DBB202211846FEF79C
:1032A00031FB0346FB73FB7BDBB203F00F03DBB2A6
:1032B000FB73FB7BDBB2052B01D90023FB73FB7B8C
:1032C000DAB2054B5A70044B00229A70FB7BDBB2DA
:1032D00018461037BD4680BD3011002080B586B03D
:1032E00000AF0346B9607A60FB810023FB740023C2
:1032F000FB750023BB7500237B7500233B756D4B6D
:103300009A786C4B5B789A4280F0CF80694B9B78BF
:10331000092B71D801A252F823F000BF45330008F1
:1033200057330008693300087B3300088D330008E9
:103330009F330008B1330008C3330008D5330008B9
:10334000E73300080423FB750323BB7506237B7555
:1033500005233B7551E00A23FB750923BB750C233C
:103360007B750B233B7548E01023FB750F23BB7562
:1033700012237B7511233B753FE01623FB75152344
:10338000BB7518237B7517233B7536E01C23FB7533
:103390001B23BB751E237B751D233B752DE022234C
:1033A000FB752123BB7524237B7523233B7524E008
:1033B0002823FB752723BB752A237B7529233B759F
:1033C0001BE02E23FB752D23BB7530237B752F232C
:1033D0003B7512E03423FB753323BB7536237B75B5
:1033E00035233B7509E03A23FB753923BB753C2334
:1033F0007B753B233B7500E000BFFB89DBB2FA7DA8
:1034000011461846FEF77EFA0346FB74FB7CDBB2DE
:103410009AB2294B1A80FB89DBB2BA7D1146184655
:10342000FEF770FA0346FB74FB7CDBB21B0203F46D
:1034300070631AB2204B1B881BB213431BB29AB2A3
:103440001D4B1A801C4B1A88BB681A80FB89DBB2A3
:103450007A7D11461846FEF755FA0346FB74FB7C4D
:10346000DBB29AB2144B1A80FB89DBB23A7D11466B
:103470001846FEF747FA0346FB74FB7CDBB21B02DF
:1034800003F470631AB20C4B1B881BB213431BB2BC
:103490009AB2094B1A80084B1A887B681A80054B30
:1034A0009B780133DAB2034B9A7000BF1837BD46E0
:1034B00080BD00BF301100203411002080B584B0E1
:1034C00000AF0346FB800023FB730123FB73FB88E3
:1034D000DBB2FA7BA4211846FEF7FCF900BF1037D7
:1034E000BD4680BD80B584B000AF0346FB8000239D
:1034F000FB730023FB73FB88DBB2FA7BA421184625
:10350000FEF7E8F900BF1037BD4680BD80B483B038
:1035100000AF0346FB80002318460C37BD465DF81C
:10352000047B704780B483B000AF0346FB8000BFCC
:103530000C37BD465DF8047B7047000080B400AFD7
:10354000034B1B781846BD465DF8047B704700BFEF
:103550003011002080B500AFFFF7F0FF0346002BCD
:1035600002D1024B01221A7000BF80BD3011002031
:1035700080B485B000AF0346FB800023FB60FB688E
:1035800018461437BD465DF8047B704780B500AF20
:103590000B4B1B680A4A43F400731360084B1B680B
:1035A000074A43F480731360032000F01CF90020E5
:1035B000FDF79AFFFDF792FC0023184680BD00BF7F
:1035C000003C024080B400AF064B1B781A46064B05
:1035D0001B681344044A136000BFBD465DF8047BBA
:1035E000704700BF380000209417012080B400AF5E
:1035F000034B1B681846BD465DF8047B704700BF4F
:103600009417012080B584B000AF7860FFF7EEFF1B
:10361000B8607B68FB60FB68B3F1FF3F05D0094BE6
:103620001B781A46FB681344FB6000BFFFF7DEFF00
:103630000246BB68D31AFA689A42F7D800BF10371F
:10364000BD4680BD3800002080B485B000AF7860F2
:103650007B6803F00703FB600B4BDB68BB60BA6859
:103660004FF6FF031340BB60FB681A02BB681A43A6
:10367000064B1343BB60044ABB68D36000BF1437DA
:10368000BD465DF8047B704700ED00E00000FA05E0
:1036900080B400AF044BDB681B0A03F00703184635
:1036A000BD465DF8047B704700ED00E080B483B058
:1036B00000AF0346FB7197F90730002B0BDBFB795A
:1036C00003F01F02074997F907305B09012000FA50
:1036D00002F241F8232000BF0C37BD465DF8047BA1
:1036E000704700BF00E100E080B483B000AF034644
:1036F000FB7197F90730002B10DBFB7903F01F02F9
:10370000094997F907305B09012000FA02F22033DA
:1037100041F82320BFF34F8FBFF36F8F00BF0C37EB
:10372000BD465DF8047B704700E100E080B483B0E3
:1037300000AF03463960FB7197F90730002B0ADBB5
:103740003B68DAB20C4997F907301201D2B20B4448
:1037500083F800230AE03B68DAB20849FB7903F0FA
:103760000F03043B1201D2B20B441A7600BF0C3790
:10377000BD465DF8047B704700E100E000ED00E02D
:1037800080B489B000AFF860B9607A60FB6803F07C
:103790000703FB61FB69C3F10703042B28BF042364
:1037A000BB61FB690433062B02D9FB69033B00E0D4
:1037B00000237B614FF0FF32BB6902FA03F3DA4367
:1037C000BB681A407B699A404FF0FF317B6901FA70
:1037D00003F3D9437B680B40134318462437BD4697
:1037E0005DF8047B704780B582B000AF7860786880
:1037F000FFF72AFF00BF0837BD4680BD80B586B001
:1038000000AF0346B9607A60FB7300237B61FFF76A
:103810003FFF78617A68B9687869FFF7B1FF0246BF
:1038200097F90F3011461846FFF780FF00BF183791
:10383000BD4680BD80B582B000AF0346FB7197F9ED
:1038400007301846FFF732FF00BF0837BD4680BD7E
:1038500080B582B000AF0346FB7197F90730184678
:10386000FFF742FF00BF0837BD4680BD80B400AF00
:10387000BFF35F8F064B5B6A054A23F480335362C4
:10388000044B00225A6000BFBD465DF8047B7047C0
:1038900000ED00E090ED00E080B483B000AF786010
:1038A0000A4A7B6843F001035360094B5B6A084A8C
:1038B00043F480335362BFF34F8FBFF36F8F00BF6A
:1038C0000C37BD465DF8047B704700BF90ED00E00B
:1038D00000ED00E080B483B000AF78607B685A7878
:1038E0001D4B9A607B681B78002B29D01A4A7B6895
:1038F0005B68D3607B681B7B1A077B68DB7A1B06DF
:103900001A437B689B7ADB041A437B685B7B9B04CE
:103910001A437B689B7B5B041A437B68DB7B1B043D
:103920001A437B685B7A1B021A437B681B7A5B0035
:1039300013437A6812781146074A0B43136105E076
:10394000054B0022DA60044B00221A6100BF0C37DD
:10395000BD465DF8047B704790ED00E080B582B015
:1039600000AF78607B68002B01D1012354E07B68B5
:103970005B7FDBB2002B05D17B6800221A77786869
:10398000FDF7D0FA7B6802225A777B681B79002BFF
:103990000CD17B681B68224A5A617B681B689A6855
:1039A0007B681B6822F018029A600CE07B689968BB
:1039B0007B68DB681A46786800F034F80346002B11
:1039C00001D0012328E07B685B79002B05D17B685F
:1039D0001B684FF0FF321A6104E07B681B687A684D
:1039E00012691A617B681B689B6823F060017B6821
:1039F0005A697B681B680A439A607B681B689B68EE
:103A000023F080017B689A697B681B680A439A608F
:103A10007B6801225A77002318460837BD4680BDCF
:103A2000B71DC10480B487B000AFF860B9607A6098
:103A30000023FB751F233B6100BF3B695A1E3A619F
:103A4000002B09D03B6903F01F03BA6822FA03F385
:103A500003F00103002BF0D07B68182B46D801A29D
:103A600052F823F0F33A0008ED3A0008ED3A000866
:103A7000ED3A0008ED3A0008ED3A0008ED3A00088A
:103A8000ED3A0008E13A0008ED3A0008ED3A000886
:103A9000ED3A0008ED3A0008ED3A0008ED3A00086A
:103AA000ED3A0008D53A0008ED3A0008ED3A000872
:103AB000ED3A0008ED3A0008ED3A0008ED3A00084A
:103AC000ED3A0008C93A00083B69062B13D90123D7
:103AD000FB7510E03B69072B0FD90123FB750CE048
:103AE0003B690F2B0BD90123FB7508E00123FB7504
:103AF00006E000BF04E000BF02E000BF00E000BF3E
:103B0000FB7D002B0DD1FB681B68BA685A61FB680E
:103B10001B689B6823F01801FB681B687A680A43DE
:103B20009A60FB7D18461C37BD465DF8047B7047E4
:103B300080B584B000AF78607B689B6DFB60FFF759
:103B400055FDB8607B6893F83530DBB2022B08D0A6
:103B50007B6880225A657B68002283F83420012329
:103B600052E07B681B681A687B681B6822F01602AB
:103B70001A607B681B685A697B681B6822F08002A8
:103B80005A617B681B6C002B03D17B689B6C002BFC
:103B900007D07B681B681A687B681B6822F00802E4
:103BA0001A607B681B681A687B681B6822F0010238
:103BB0001A6013E0FFF71AFD0246BB68D31A052B03
:103BC0000CD97B6820225A657B68002283F8342058
:103BD0007B68032283F83520032315E07B681B688C
:103BE0001B6803F00103002BE4D17B68DB6D3F22EF
:103BF0009A40FB689A607B68002283F834207B68D7
:103C0000012283F83520002318461037BD4680BDB9
:103C100080B582B000AF78607B68002B01D10123B2
:103C200039E07B6893F83930DBB2002B06D17B6832
:103C3000002283F838207868FDF794F97B68022227
:103C400083F839207B681B681B6823F440317B684C
:103C50005A687B681B680A431A607B681B685B6B49
:103C600023F007017B689A687B681B680A435A63E4
:103C70007B681B681A6C0A4B13407A68D1687A68B3
:103C800012680B4313647B680022DA637B680122AD
:103C900083F83920002318460837BD4680BD00BF91
:103CA00000C0FFFF80B582B000AF78607B68002B5A
:103CB00001D101235FE0324B1B6B03F40003002BA7
:103CC0002ED07B681B681B6803F00103012B07D112
:103CD000786800F0C1F80346002B21D001234AE0A8
:103CE0007B681B685B6A03F02003202B08D100214E
:103CF000786800F0F7F80346002B11D001233AE072
:103D00007B681B68DB6903F02003202B08D10121AD
:103D1000786800F0E7F80346002B01D001232AE081
:103D20007B681B6800221A607B681B683F229A60D0
:103D30007B681B6800221A617B681B6800229A61FD
:103D40007B681B680022DA617B681B6800225A626C
:103D50007B681B6800225A637868FDF729F97B6845
:103D60000022DA637B68002283F839207B68002216
:103D700083F83820002318460837BD4680BD00BFB1
:103D80000038024080B586B002AFF860B9607A6052
:103D90003B60FB6893F83830012B01D1022320E00F
:103DA000FB68012283F83820FB68022283F839205F
:103DB000BB6900933B687A68B968F86800F084FAD8
:103DC000FB681B681A68FB681B6842F40C521A6097
:103DD000FB681B681A68FB681B6842F001021A60E6
:103DE000002318461037BD4680BD80B586B002AFAF
:103DF000F860B9607A603B60FB6893F83830012B5B
:103E000001D1022324E0FB68012283F83820FB68FB
:103E1000022283F83920FB681B687A685A61FB69C3
:103E20000093BB693A68B968F86800F04DFAFB681E
:103E30001B681A68FB681B6842F40C521A60FB6826
:103E40001B681A68FB681B6842F001021A600023B5
:103E500018461037BD4680BD80B584B000AF78608D
:103E60007B681B681B6823F005027B681B6842F0B7
:103E700004021A60FFF7BAFBF86017E0FFF7B6FB21
:103E80000246FB68D31AB3F57A7F0FD97B68DB6BE8
:103E900043F020027B68DA637B68032283F83920D1
:103EA0007B68002283F83820032317E07B681B68B7
:103EB0001B6803F00103002BE0D17B681B681A68C4
:103EC0007B681B6822F40C521A607B68012283F81D
:103ED00039207B68002283F83820002318461037E9
:103EE000BD4680BD80B584B000AF786039607B6826
:103EF0001B682433FB607B681B681A687B681B683F
:103F000042F004021A603B68012B03D17B681B68F6
:103F10001C33FB60FFF76AFBB86017E0FFF766FB36
:103F20000246BB68D31AB3F57A7F0FD97B68DB6B87
:103F300043F020027B68DA637B68032283F8392030
:103F40007B68002283F83820032316E0FB681B6897
:103F500003F02003002BE1D17B681B681A687B68A3
:103F60001B6822F464521A607B68012283F83920AE
:103F70007B68002283F83820002318461037BD469E
:103F800080BD80B584B000AF78607B681B685B68DB
:103F9000FB607B681B681B68BB60FB6803F0010368
:103FA000002B26D0BB6803F48073002B21D07B68E4
:103FB0001B681A687B681B6822F480721A607B6831
:103FC000DB6B43F001027B68DA637B681B680122CC
:103FD0009A607B68042283F839207B68002283F88A
:103FE00038207B685B69002B03D07B685B6978684D
:103FF0009847FB6803F02003002B26D0BB6803F42E
:104000000053002B21D07B681B681A687B681B68F3
:1040100022F400521A607B681B6820229A607B6839
:10402000DB6B43F002027B68DA637B68042283F86F
:1040300039207B68002283F838207B685B69002B7D
:1040400003D07B685B6978689847FB6803F00803D6
:10405000002B26D0BB6803F40063002B21D07B68C3
:104060001B681A687B681B6822F400621A607B6810
:104070001B6808229A607B68DB6B43F004027B6854
:10408000DA637B68042283F839207B68002283F896
:1040900038207B685B69002B03D07B685B6978689C
:1040A0009847FB6803F00403002B13D0BB6803F4AC
:1040B0008063002B0ED07B681B681A687B681B68C6
:1040C00022F480621A607B681B6804229A60786818
:1040D00000F053F8FB6803F00203002B24D0BB6808
:1040E00003F40073002B1FD07B681B681A687B6881
:1040F0001B6822F400721A607B681B6802229A60B7
:104100007B68DA6B7B68DA637B68012283F839208D
:104110007B68002283F838207B681B69002B03D062
:104120007B681B6978689847FB6803F01003002BD5
:104130001FD0BB6803F48053002B1AD07B681B6828
:104140001A687B681B6822F480521A607B681B68BF
:1041500010229A607B68DA6B7B68DA637B680122E5
:1041600083F839207B68002283F83820786800F0D3
:104170000EF800BF1037BD4680BD80B483B000AFDD
:10418000786000BF0C37BD465DF8047B704780B493
:1041900083B000AF786000BF0C37BD465DF8047B8C
:1041A0007047000080B487B000AF786039607B68EA
:1041B0005B68B3F5403F7B6893F83830012B01D141
:1041C000022379E07B68012283F838207B68022291
:1041D00083F839203B681B0118337A6813443B612C
:1041E0003B695A683B699B681B0413437B61354BF1
:1041F000FB603B695B680A2B03D03B695B68092B5A
:1042000007D13B69DB6803F07F437A6913437B6125
:1042100005E03B69DB681B067A6913437B613B68F9
:10422000002B20D17B681B685A6AFB68DB4302EADB
:1042300003017B681B687A690A435A627B681B68C2
:104240003A6912689A613B695B680A2B03D03B6943
:104250005B68092B27D13B69DA687B681B6822F011
:104260007F429A621FE07B681B68DA69FB68DB4368
:1042700002EA03017B681B687A690A43DA617B689A
:104280001B683A6912681A613B695B680A2B03D0A4
:104290003B695B68092B06D13B69DA687B681B6860
:1042A00022F07F421A627B68012283F839207B6802
:1042B000002283F83820002318461C37BD465DF8DD
:1042C000047B70470F0003FF80B48BB000AFF86031
:1042D000B9607A603B60FB681B685B6C03F040412F
:1042E0003B681A043B6B1A43FB681B680A435A6419
:1042F000FB681B687A68DA63FB685B68B3F5403F6C
:1043000074D1BB6803F07F433B62BB6803F47F0357
:10431000FB61BB6803F47F43BB61BB68DBB27B61BD
:10432000FB689B68002B08D1BA69FB691A433B6A9A
:1043300013437A6913437B6253E0FB689B68012B4C
:1043400006D1BA69FB6913437A6913437B6248E07B
:10435000FB689B68022B11D1FB69DB0CFB61BB691D
:104360009B0ABB617B69DB087B61BB695A01FB6906
:10437000DB0213437A6913437B6232E0FB689B687C
:10438000032B17D13B6ADB0F3B62FB69DB0CFB6144
:10439000BB69DB0ABB617B69DB087B61BB695A01D6
:1043A000FB699B021A433B6ADB0313437A6913439D
:1043B0007B6216E03B6A1B0F3B62FB691B0DFB61D6
:1043C000BB691B0BBB617B691B097B61BB691A0164
:1043D000FB691B021A433B6A1B0313437A691343AD
:1043E0007B62FB681B687A6A9A6303E0FB681B6860
:1043F000BA68DA6000BF2C37BD465DF8047B7047B1
:1044000080B489B000AF786039600023FB6100237D
:104410007B6100233B610023BB610023FB6175E1ED
:104420000122FB6902FA03F37B613B681B687A692E
:1044300013403B613A697B699A4240F064813B6872
:104440005B68012B0BD03B685B68022B07D03B6895
:104450005B68112B03D03B685B68122B30D17B6803
:104460009B68BB61FB695B00032202FA03F3DB4339
:10447000BA691340BB613B68DA68FB695B0002FA0A
:1044800003F3BA691343BB617B68BA699A607B68BE
:104490005B68BB610122FB6902FA03F3DB43BA6983
:1044A0001340BB613B685B681B0903F00102FB69B9
:1044B00002FA03F3BA691343BB617B68BA695A60B5
:1044C0007B68DB68BB61FB695B00032202FA03F3D4
:1044D000DB43BA691340BB613B689A68FB695B00C8
:1044E00002FA03F3BA691343BB617B68BA69DA6005
:1044F0003B685B68022B03D03B685B68122B23D1BF
:10450000FB69DA087B68083253F82230BB61FB692B
:1045100003F007039B000F2202FA03F3DB43BA699F
:104520001340BB613B681A69FB6903F007039B00FA
:1045300002FA03F3BA691343BB61FB69DA087B68CB
:104540000832B96943F822107B681B68BB61FB69BC
:104550005B00032202FA03F3DB43BA691340BB6139
:104560003B685B6803F00302FB695B0002FA03F33C
:10457000BA691343BB617B68BA691A603B685B68C0
:1045800003F08053002B00F0BE80654B5B6C644AE7
:1045900043F480435364624B5B6C03F48043FB60E1
:1045A000FB68604AFB699B08023352F82330BB6109
:1045B000FB6903F003039B000F2202FA03F3DB43C2
:1045C000BA691340BB617B68574A934237D07B6816
:1045D000564A934231D07B68554A93422BD07B6830
:1045E000544A934225D07B68534A93421FD07B683C
:1045F000524A934219D07B68514A934213D07B6848
:10460000504A93420DD07B684F4A934207D07B6853
:104610004E4A934201D1092312E00A2310E00823F5
:104620000EE007230CE006230AE0052308E004233C
:1046300006E0032304E0022302E0012300E000235C
:10464000FA6902F0030292009340BA691343BB6116
:104650003449FB699B080233BA6941F823203C4B7B
:104660001B68BB613B69DB43BA691340BB613B68B4
:104670005B6803F48033002B03D0BA693B691343B2
:10468000BB61334ABB691360314B5B68BB613B69FB
:10469000DB43BA691340BB613B685B6803F40033DA
:1046A000002B03D0BA693B691343BB61284ABB693D
:1046B0005360274B9B68BB613B69DB43BA6913407E
:1046C000BB613B685B6803F48013002B03D0BA69BD
:1046D0003B691343BB611E4ABB6993601C4BDB689B
:1046E000BB613B69DB43BA691340BB613B685B68F4
:1046F00003F40013002B03D0BA693B691343BB6179
:10470000134ABB69D360FB690133FB61FB690F2B63
:104710007FF686AE00BF2437BD465DF8047B704748
:10472000003802400038014000000240000402400E
:1047300000080240000C0240001002400014024039
:1047400000180240001C02400020024000240240E9
:10475000003C014080B487B000AF7860396000232E
:104760003B610023FB600023BB6000237B61D9E039
:1047700001227B6902FA03F33B613A683B6913400B
:10478000FB60FA683B699A4240F0C9806A4A7B69DB
:104790009B08023352F82330BB607B6903F00303AC
:1047A0009B000F2202FA03F3BA681340BB607B68D8
:1047B000624A934237D07B68614A934231D07B682A
:1047C000604A93422BD07B685F4A934225D07B6836
:1047D0005E4A93421FD07B685D4A934219D07B6842
:1047E0005C4A934213D07B685B4A93420DD07B684E
:1047F0005A4A934207D07B68594A934201D1092310
:1048000012E00A2310E008230EE007230CE0062341
:104810000AE0052308E0042306E0032304E0022362
:1048200002E0012300E000237A6902F00302920013
:104830009340BA689A4232D14A4B1A68FB68DB430C
:10484000484913400B60474B5A68FB68DB434549B6
:1048500013404B60434B9A68FB68DB43414913406C
:104860008B60404BDA68FB68DB433E491340CB600A
:104870007B6903F003039B000F2202FA03F3BB6082
:104880002D4A7B699B08023352F82310BB68DA4338
:1048900029487B699B080A40023340F823207B6843
:1048A0001A687B695B00032101FA03F3DB431A40BA
:1048B0007B681A607B69DA087B68083253F822103B
:1048C0007B6903F007039B000F2202FA03F3DB432B
:1048D0007A69D20819407B68083243F822107B6855
:1048E000DA687B695B00032101FA03F3DB431A40BA
:1048F0007B68DA607B685A6801217B6901FA03F3FF
:10490000DB431A407B685A607B689A687B695B006E
:10491000032101FA03F3DB431A407B689A607B6949
:1049200001337B617B690F2B7FF622AF00BF1C3701
:10493000BD465DF8047B704700380140000002402E
:104940000004024000080240000C02400010024037
:104950000014024000180240001C024000200240E7
:1049600000240240003C014080B483B000AF786076
:104970000B467B8013467B707B78002B03D07A88B4
:104980007B689A6103E07B881A047B689A6100BFA8
:104990000C37BD465DF8047B7047000080B582B0DF
:1049A00000AF78607B68002B01D101237FE07B683A
:1049B00093F84130DBB2002B06D17B68002283F8EC
:1049C00040207868FCF70EFB7B68242283F84120A6
:1049D0007B681B681A687B681B6822F001021A60FA
:1049E0007B685A687B681B6822F070621A617B687A
:1049F0001B689A687B681B6822F400429A607B6897
:104A0000DB68012B07D17B689A687B681B6842F4DE
:104A100000429A6006E07B689A687B681B6842F4F3
:104A200004429A607B68DB68022B04D17B681B68B8
:104A30004FF400625A607B681B6859687B681A688B
:104A40001D4B0B4353607B681B68DA687B681B68EF
:104A500022F40042DA607B681A697B685B6942EA8B
:104A600003017B689B691A027B681B680A43DA6052
:104A70007B68D9697B681A6A7B681B680A431A607D
:104A80007B681B681A687B681B6842F001021A6029
:104A90007B6800225A647B68202283F841207B686F
:104AA00000221A637B68002283F842200023184604
:104AB0000837BD4680BD00BF0080000280B582B0CF
:104AC00000AF78607B68002B01D1012321E07B6877
:104AD000242283F841207B681B681A687B681B6866
:104AE00022F001021A607868FCF7C0FA7B680022A5
:104AF0005A647B68002283F841207B6800221A6395
:104B00007B68002283F842207B68002283F84020E3
:104B1000002318460837BD4680BD000080B588B028
:104B200002AFF860084611461A4603467B810B46E1
:104B30003B811346FB80FB6893F84130DBB2202BAE
:104B400040F0F9803B6A002B02D0BB8C002B05D1D2
:104B5000FB684FF400725A640123EDE0FB6893F8A0
:104B60004030012B01D10223E6E0FB68012283F8EB
:104B70004020FEF73BFD78617B69009319230122F9
:104B80004FF40041F86800F0C3FA0346002B01D04F
:104B90000123D1E0FB68212283F84120FB684022F9
:104BA00083F84220FB6800225A64FB683A6A5A6222
:104BB000FB68BA8C5A85FB6800225A63F8883A89E8
:104BC00079897B690193BB6A00930346F86800F01A
:104BD000D3F90346002B05D0FB68002283F8402060
:104BE0000123A9E0FB685B8D9BB2FF2B0ED9FB680C
:104BF000FF221A85FB681B8DDAB2798900230093A6
:104C00004FF08073F86800F0A5FB0FE0FB685B8D48
:104C10009AB2FB681A85FB681B8DDAB2798900238A
:104C200000934FF00073F86800F094FB7A69B96A5A
:104C3000F86800F0ADFA0346002B01D001237BE0B9
:104C4000FB685B6A1A78FB681B689A62FB685B6AA0
:104C50005A1CFB685A62FB685B8D9BB2013B9AB29F
:104C6000FB685A85FB681B8D013B9AB2FB681A856D
:104C7000FB685B8D9BB2002B34D0FB681B8D002B37
:104C800030D17B690093BB6A00228021F86800F074
:104C90003FFA0346002B01D001234DE0FB685B8DFA
:104CA0009BB2FF2B0ED9FB68FF221A85FB681B8D78
:104CB000DAB27989002300934FF08073F86800F02E
:104CC00049FB0FE0FB685B8D9AB2FB681A85FB68B5
:104CD0001B8DDAB27989002300934FF00073F868D6
:104CE00000F038FBFB685B8D9BB2002B9ED17A698C
:104CF000B96AF86800F08CFA0346002B01D0012352
:104D00001AE0FB681B682022DA61FB681B6859689F
:104D1000FB681A680A4B0B405360FB68202283F83B
:104D20004120FB68002283F84220FB68002283F8C0
:104D30004020002300E0022318461837BD4680BDFE
:104D400000E800FE80B588B002AFF8600846114662
:104D50001A4603467B810B463B811346FB80FB686A
:104D600093F84130DBB2202B40F0FD803B6A002BF2
:104D700002D0BB8C002B05D1FB684FF400725A6443
:104D80000123F1E0FB6893F84030012B01D10223AD
:104D9000EAE0FB68012283F84020FEF727FC7861F7
:104DA0007B690093192301224FF40041F86800F059
:104DB000AFF90346002B01D00123D5E0FB68222286
:104DC00083F84120FB68402283F84220FB680022E0
:104DD0005A64FB683A6A5A62FB68BA8C5A85FB6867
:104DE00000225A63F8883A8979897B690193BB6A02
:104DF00000930346F86800F013F90346002B05D032
:104E0000FB68002283F840200123ADE0FB685B8D46
:104E10009BB2FF2B0ED9FB68FF221A85FB681B8D06
:104E2000DAB27989524B00934FF08073F86800F042
:104E300091FA0FE0FB685B8D9AB2FB681A85FB68FC
:104E40001B8DDAB279894A4B00934FF00073F868F2
:104E500000F080FA7B690093BB6A00220421F868A5
:104E600000F056F90346002B01D001237CE0FB68DB
:104E70001B685A6AFB685B6AD2B21A70FB685B6A8D
:104E80005A1CFB685A62FB681B8D013B9AB2FB6897
:104E90001A85FB685B8D9BB2013B9AB2FB685A8511
:104EA000FB685B8D9BB2002B34D0FB681B8D002B05
:104EB00030D17B690093BB6A00228021F86800F042
:104EC00027F90346002B01D001234DE0FB685B8DE1
:104ED0009BB2FF2B0ED9FB68FF221A85FB681B8D46
:104EE000DAB27989002300934FF08073F86800F0FC
:104EF00031FA0FE0FB685B8D9AB2FB681A85FB689C
:104F00001B8DDAB27989002300934FF00073F868A3
:104F100000F020FAFB685B8D9BB2002B9AD17A6976
:104F2000B96AF86800F074F90346002B01D0012338
:104F30001AE0FB681B682022DA61FB681B6859686D
:104F4000FB681A680B4B0B405360FB68202283F808
:104F50004120FB68002283F84220FB68002283F88E
:104F60004020002300E0022318461837BD4680BDCC
:104F70000024008000E800FE80B586B002AFF86033
:104F8000084611461A4603467B810B463B81134671
:104F9000FB80FB88DAB27989204B00934FF0807355
:104FA000F86800F0D7F9FA69B969F86800F0F0F824
:104FB0000346002B01D001232CE0FB88012B05D1F7
:104FC0003B89DAB2FB681B689A6215E03B891B0AD1
:104FD0009BB2DAB2FB681B689A62FA69B969F86831
:104FE00000F0D6F80346002B01D0012312E03B89E4
:104FF000DAB2FB681B689A62FB690093BB69002206
:105000008021F86800F084F80346002B01D00123CA
:1050100000E0002318461037BD4680BD0020008008
:1050200080B586B002AFF860084611461A460346BE
:105030007B810B463B811346FB80FB88DAB2798982
:10504000204B00930023F86800F084F9FA69B969ED
:10505000F86800F09DF80346002B01D001232CE0F6
:10506000FB88012B05D13B89DAB2FB681B689A6289
:1050700015E03B891B0A9BB2DAB2FB681B689A6297
:10508000FA69B969F86800F083F80346002B01D08B
:10509000012312E03B89DAB2FB681B689A62FB6964
:1050A0000093BB6900224021F86800F031F8034604
:1050B000002B01D0012300E0002318461037BD4625
:1050C00080BD00BF0020008080B483B000AF786056
:1050D0007B681B689B6903F00203022B03D17B688A
:1050E0001B6800229A627B681B689B6903F00103BE
:1050F000012B07D07B681B689A697B681B6842F0AC
:1051000001029A6100BF0C37BD465DF8047B704711
:1051100080B584B000AFF860B9603B601346FB71A6
:1051200022E03B68B3F1FF3F1ED0FEF75FFA024674
:10513000BB69D31A3A689A4202D33B68002B13D159
:10514000FB685B6C43F02002FB685A64FB6820221A
:1051500083F84120FB68002283F84220FB6800228C
:1051600083F8402001230FE0FB681B689A69BB6845
:105170001340BA689A420CBF01230023DBB21A46DF
:10518000FB799A42CDD0002318461037BD4680BD2A
:1051900080B584B000AFF860B9607A602CE07A68BE
:1051A000B968F86800F070F80346002B01D00123BD
:1051B0002AE0BB68B3F1FF3F1ED0FEF717FA0246A4
:1051C0007B68D31ABA689A4202D3BB68002B13D10A
:1051D000FB685B6C43F02002FB685A64FB6820228A
:1051E00083F84120FB68002283F84220FB680022FC
:1051F00083F84020012307E0FB681B689B6903F0EC
:105200000203022BCBD1002318461037BD4680BDC8
:1052100080B584B000AFF860B9607A6028E07A6841
:10522000B968F86800F030F80346002B01D001237C
:1052300026E0FEF7DBF902467B68D31ABA689A4289
:1052400002D3BB68002B13D1FB685B6C43F02002D8
:10525000FB685A64FB68202283F84120FB68002227
:1052600083F84220FB68002283F84020012307E0F6
:10527000FB681B689B6903F02003202BCFD1002320
:1052800018461037BD4680BD80B584B000AFF860C9
:10529000B9607A60FB681B689B6903F01003102BF0
:1052A00051D122E0BB68B3F1FF3F1ED0FEF79EF95B
:1052B00002467B68D31ABA689A4202D3BB68002BB5
:1052C00013D1FB685B6C43F02002FB685A64FB68F7
:1052D000202283F84120FB68002283F84220FB68EB
:1052E000002283F8402001232EE0FB681B689B69A5
:1052F00003F02003202BD5D1FB681B681022DA6154
:10530000FB681B682022DA61F868FFF7DDFEFB68A6
:105310001B685968FB681A680D4B0B405360FB68AB
:105320005B6C43F00402FB685A64FB68202283F83C
:105330004120FB68002283F84220FB68002283F8AA
:105340004020012300E0002318461037BD4680BDF1
:1053500000E800FE80B485B000AFF8607B600B46CB
:105360007B8113467B72FB681B685A68BB695B0DC7
:1053700003F480610D4B0B43DB4302EA03017B899D
:10538000C3F309027B7A1B0403F47F031A437B688F
:105390001A43BB691A43FB681B680A435A6000BF83
:1053A0001437BD465DF8047B704700BFFF63FF0301
:1053B00080B483B000AF786039607B6893F8413087
:1053C000DBB2202B38D17B6893F84030012B01D120
:1053D000022332E07B68012283F840207B6824228C
:1053E00083F841207B681B681A687B681B6822F081
:1053F00001021A607B681B681A687B681B6822F4CC
:1054000080521A607B681B6819687B681B683A6861
:105410000A431A607B681B681A687B681B6842F045
:1054200001021A607B68202283F841207B680022F9
:1054300083F84020002300E0022318460C37BD46C5
:105440005DF8047B704780B485B000AF7860396048
:105450007B6893F84130DBB2202B39D17B6893F81D
:105460004030012B01D1022333E07B68012283F815
:1054700040207B68242283F841207B681B681A68DF
:105480007B681B6822F001021A607B681B681B683E
:10549000FB60FB6823F47063FB603B681B02FA68E7
:1054A0001343FB607B681B68FA681A607B681B68A3
:1054B0001A687B681B6842F001021A607B68202230
:1054C00083F841207B68002283F84020002300E01D
:1054D000022318461437BD465DF8047B7047000070
:1054E00080B584B000AF78607B68002B01D10123C8
:1054F000BFE07B6893F8A130DBB2002B06D17B685C
:10550000002283F8A0207868FBF7D2FD7B68022296
:1055100083F8A1207B681B689A697B681B6822F06E
:1055200070429A617B681B6899697B685A687B68DE
:105530009B681A437B68DB681A437B681B691A43C4
:105540007B681B680A439A617B681B6899687B6863
:105550001A684A4B0B4093607B685B691B04FB60D5
:105560007B681B6899687B689A69FB681A437B684B
:105570001B680A439A607B681B68D9687B681A6855
:105580003E4B0B40D3607B68DB691B04FB607B6890
:105590001B68D9687B681A6AFB681A437B681B68BA
:1055A0000A43DA607B681B6819697B681A68334BA9
:1055B0000B4013617B685B6A1B04FB607B681B68A4
:1055C00019697B689A6AFB681A437B681B680A43FF
:1055D0001A617B681B6859697B681A68274B0B4006
:1055E00053617B68DB6A1B04FB607B681B6859693D
:1055F0007B681A6BFB681A437B681B680A435A6115
:105600007B6893F835301B02FB607B6893F836307B
:105610001B04BB607B681B68DA6A7B681B6802F04E
:105620007F42DA627B681B68D96ABA68FB681343F9
:105630007A6892F834201A437B681B680A43DA625E
:105640007B681B685A6B7B681B6842F006025A63D2
:105650007B681B689A697B681B6842F001029A614B
:105660007B680022C3F8A4207B68012283F8A12074
:10567000002318461037BD4680BD00BF00F800F07B
:1056800080B584B000AF78607B681B689B6BFB6063
:105690007B681B685B6BBB60FB6803F00403002B3B
:1056A00023D0BB6803F00403002B1ED07B681B686B
:1056B0005A6B7B681B6822F004025A637B681B6884
:1056C0000422DA637B68D3F8A43043F001027B68DC
:1056D000C3F8A4207B68042283F8A1207B68002201
:1056E00083F8A020786800F06FF8FB6803F00203ED
:1056F000002B23D0BB6803F00203002B1ED07B6875
:105700001B685A6B7B681B6822F002025A637B6835
:105710001B680222DA637B68D3F8A43043F00202EC
:105720007B68C3F8A4207B68042283F8A1207B68EF
:10573000002283F8A020786800F046F8FB6803F0A8
:105740000103002B1BD0BB6803F00103002B16D014
:105750007B681B685A6B7B681B6822F001025A63E6
:105760007B681B680122DA637B68012283F8A12031
:105770007B68002283F8A0207868FCF719FEFB689C
:1057800003F00803002B1BD0BB6803F00803002BB9
:1057900016D07B681B685A6B7B681B6822F0080276
:1057A0005A637B681B680822DA637B68012283F8EE
:1057B000A1207B68002283F8A020786800F00EF812
:1057C00000BF1037BD4680BD80B483B000AF7860A5
:1057D00000BF0C37BD465DF8047B704780B483B0D2
:1057E00000AF786000BF0C37BD465DF8047B7047A2
:1057F000B0B584B000AFF860B9607A60FB6893F828
:10580000A030012B01D102232CE0FB68012283F898
:10581000A020FB68022283F8A120FA687B6834216B
:1058200001FB03F3134403F13802BB6814461D4621
:105830000FCD0FC40FCD0FC40FCD0FC42B68236045
:105840007A68B968F86800F049F8FB681B680122BB
:105850005A62FB68012283F8A120FB68002283F8CA
:10586000A020002318461037BD46B0BD80B483B0D9
:1058700000AF786039607B6893F8A030012B01D1CC
:10588000022323E07B68012283F8A0207B680222A8
:1058900083F8A1207B681B685A6B7B681B6822F029
:1058A00001025A630C4A3B6813647B681B685A6B9D
:1058B0007B681B6842F001025A637B68012283F80F
:1058C000A1207B68002283F8A020002318460C3713
:1058D000BD465DF8047B70470068014080B489B024
:1058E00000AFF860B9607A60BB685A68FB681B68F3
:1058F000DB681B0CC3F30B0313441B04FB61FB6845
:105900001B681A467B68DB01134484335B68FA68C2
:10591000126811467A68D2010A44843203F4704353
:105920005360BB681A68FB681B68DB681B0CC3F319
:105930000B0313445A1CFB681B6819467B68DB0188
:105940000B4484331946FB6913434B60BB68DA6828
:10595000FB681B68DB68C3F30A0313441B04FB6189
:10596000FB681B681A467B68DB01134484339B6821
:10597000FA68126811467A68D2010A44843203F444
:1059800070439360BB689A68FB681B68DB68C3F36D
:105990000A0313445A1CFB681B6819467B68DB0129
:1059A0000B4484331946FB6913438B60FB681B6807
:1059B0001A467B68DB01134484331B69FA6812685A
:1059C00011467A68D2010A44843223F00703136136
:1059D000FB681B681A467B68DB01134484331A4654
:1059E000BB681B691361BB6893F831301B02FB6114
:1059F000BB6893F832301B04BB61BB689B691B0614
:105A00007B61FB681B681A467B68DB0113448433A7
:105A10009B69FB681B681A467B68DB01134484336F
:105A20001A4600239361BB6893F830301A46FB692D
:105A30001A43BB691A43FB681B6819467B68DB0184
:105A40000B44843319467B6913438B61FB681B68E5
:105A50001A467B68DB01134484335B69FA68126879
:105A600011467A68D2010A44843223F0FF0353615D
:105A7000FB681B681A467B68DB01134484331A46B3
:105A8000BB685B695361FB681B681A467B68DB0176
:105A900013448433DA69FB681B6819467B68DB01B1
:105AA0000B4484331946584B1340CB61BB68DA6909
:105AB000BB681B6AF968096808467968C90101442E
:105AC00084311343CB61FB681B681A467B68DB019A
:105AD000134484339B6AFB681B681A467B68DB01AE
